{
  "contractName": "Exchange",
  "abi": [
    {
      "constant": true,
      "inputs": [],
      "name": "negativeFees",
      "outputs": [
        {
          "name": "",
          "type": "bool"
        }
      ],
      "payable": false,
      "stateMutability": "view",
      "type": "function"
    },
    {
      "constant": true,
      "inputs": [
        {
          "name": "",
          "type": "bytes32"
        }
      ],
      "name": "cancelled",
      "outputs": [
        {
          "name": "",
          "type": "bool"
        }
      ],
      "payable": false,
      "stateMutability": "view",
      "type": "function"
    },
    {
      "constant": true,
      "inputs": [],
      "name": "accountEjectionTimelock",
      "outputs": [
        {
          "name": "",
          "type": "uint256"
        }
      ],
      "payable": false,
      "stateMutability": "view",
      "type": "function"
    },
    {
      "constant": true,
      "inputs": [
        {
          "name": "",
          "type": "address"
        }
      ],
      "name": "cancelledOrders",
      "outputs": [
        {
          "name": "",
          "type": "uint256"
        }
      ],
      "payable": false,
      "stateMutability": "view",
      "type": "function"
    },
    {
      "constant": true,
      "inputs": [
        {
          "name": "",
          "type": "address"
        }
      ],
      "name": "accountEjectedAt",
      "outputs": [
        {
          "name": "",
          "type": "uint256"
        }
      ],
      "payable": false,
      "stateMutability": "view",
      "type": "function"
    },
    {
      "constant": true,
      "inputs": [],
      "name": "owner",
      "outputs": [
        {
          "name": "",
          "type": "address"
        }
      ],
      "payable": false,
      "stateMutability": "view",
      "type": "function"
    },
    {
      "constant": true,
      "inputs": [
        {
          "name": "",
          "type": "address"
        },
        {
          "name": "",
          "type": "address"
        }
      ],
      "name": "balances",
      "outputs": [
        {
          "name": "",
          "type": "uint256"
        }
      ],
      "payable": false,
      "stateMutability": "view",
      "type": "function"
    },
    {
      "constant": true,
      "inputs": [],
      "name": "feeCollector",
      "outputs": [
        {
          "name": "",
          "type": "address"
        }
      ],
      "payable": false,
      "stateMutability": "view",
      "type": "function"
    },
    {
      "constant": true,
      "inputs": [
        {
          "name": "",
          "type": "bytes32"
        }
      ],
      "name": "traded",
      "outputs": [
        {
          "name": "",
          "type": "bool"
        }
      ],
      "payable": false,
      "stateMutability": "view",
      "type": "function"
    },
    {
      "constant": true,
      "inputs": [],
      "name": "inactive",
      "outputs": [
        {
          "name": "",
          "type": "bool"
        }
      ],
      "payable": false,
      "stateMutability": "view",
      "type": "function"
    },
    {
      "constant": true,
      "inputs": [
        {
          "name": "",
          "type": "bytes32"
        }
      ],
      "name": "orderFills",
      "outputs": [
        {
          "name": "",
          "type": "uint256"
        }
      ],
      "payable": false,
      "stateMutability": "view",
      "type": "function"
    },
    {
      "constant": true,
      "inputs": [],
      "name": "server",
      "outputs": [
        {
          "name": "",
          "type": "address"
        }
      ],
      "payable": false,
      "stateMutability": "view",
      "type": "function"
    },
    {
      "inputs": [],
      "payable": false,
      "stateMutability": "nonpayable",
      "type": "constructor"
    },
    {
      "anonymous": false,
      "inputs": [
        {
          "indexed": false,
          "name": "token",
          "type": "address"
        },
        {
          "indexed": false,
          "name": "account",
          "type": "address"
        },
        {
          "indexed": false,
          "name": "amount",
          "type": "uint256"
        },
        {
          "indexed": false,
          "name": "balance",
          "type": "uint256"
        }
      ],
      "name": "Deposit",
      "type": "event"
    },
    {
      "anonymous": false,
      "inputs": [
        {
          "indexed": false,
          "name": "account",
          "type": "address"
        }
      ],
      "name": "Ejection",
      "type": "event"
    },
    {
      "constant": false,
      "inputs": [
        {
          "name": "value",
          "type": "uint256"
        }
      ],
      "name": "setAccountEjectionTimelock",
      "outputs": [],
      "payable": false,
      "stateMutability": "nonpayable",
      "type": "function"
    },
    {
      "constant": false,
      "inputs": [
        {
          "name": "_status",
          "type": "bool"
        }
      ],
      "name": "setNegativeFees",
      "outputs": [],
      "payable": false,
      "stateMutability": "nonpayable",
      "type": "function"
    },
    {
      "constant": false,
      "inputs": [],
      "name": "deactivate",
      "outputs": [],
      "payable": false,
      "stateMutability": "nonpayable",
      "type": "function"
    },
    {
      "constant": false,
      "inputs": [
        {
          "name": "_feeCollector",
          "type": "address"
        }
      ],
      "name": "changeFeeCollector",
      "outputs": [],
      "payable": false,
      "stateMutability": "nonpayable",
      "type": "function"
    },
    {
      "constant": false,
      "inputs": [
        {
          "name": "_server",
          "type": "address"
        }
      ],
      "name": "changeServer",
      "outputs": [],
      "payable": false,
      "stateMutability": "nonpayable",
      "type": "function"
    },
    {
      "constant": false,
      "inputs": [
        {
          "name": "_owner",
          "type": "address"
        }
      ],
      "name": "changeOwner",
      "outputs": [],
      "payable": false,
      "stateMutability": "nonpayable",
      "type": "function"
    },
    {
      "constant": false,
      "inputs": [],
      "name": "deposit",
      "outputs": [],
      "payable": true,
      "stateMutability": "payable",
      "type": "function"
    },
    {
      "constant": false,
      "inputs": [
        {
          "name": "_token",
          "type": "address"
        },
        {
          "name": "_account",
          "type": "address"
        },
        {
          "name": "_amount",
          "type": "uint256"
        }
      ],
      "name": "depositToken",
      "outputs": [],
      "payable": false,
      "stateMutability": "nonpayable",
      "type": "function"
    },
    {
      "constant": false,
      "inputs": [
        {
          "name": "_token",
          "type": "address"
        },
        {
          "name": "_amount",
          "type": "uint256"
        },
        {
          "name": "_account",
          "type": "address"
        },
        {
          "name": "_fee",
          "type": "uint256"
        }
      ],
      "name": "withdraw",
      "outputs": [],
      "payable": false,
      "stateMutability": "nonpayable",
      "type": "function"
    },
    {
      "constant": false,
      "inputs": [],
      "name": "eject",
      "outputs": [],
      "payable": false,
      "stateMutability": "nonpayable",
      "type": "function"
    },
    {
      "constant": false,
      "inputs": [
        {
          "name": "_token",
          "type": "address"
        },
        {
          "name": "_amount",
          "type": "uint256"
        }
      ],
      "name": "directWithdraw",
      "outputs": [],
      "payable": false,
      "stateMutability": "nonpayable",
      "type": "function"
    },
    {
      "constant": false,
      "inputs": [
        {
          "name": "_addresses",
          "type": "address[]"
        },
        {
          "name": "_uints",
          "type": "uint256[]"
        },
        {
          "name": "v",
          "type": "uint8[]"
        },
        {
          "name": "rs",
          "type": "bytes32[]"
        }
      ],
      "name": "trade",
      "outputs": [],
      "payable": false,
      "stateMutability": "nonpayable",
      "type": "function"
    },
    {
      "constant": false,
      "inputs": [
        {
          "name": "_account",
          "type": "address"
        },
        {
          "name": "_nonce",
          "type": "uint256"
        }
      ],
      "name": "bulkCancelOrders",
      "outputs": [],
      "payable": false,
      "stateMutability": "nonpayable",
      "type": "function"
    },
    {
      "constant": false,
      "inputs": [
        {
          "name": "_hash",
          "type": "bytes32"
        }
      ],
      "name": "cancelOrder",
      "outputs": [],
      "payable": false,
      "stateMutability": "nonpayable",
      "type": "function"
    }
  ],
  "bytecode": "0x608060405234801561001057600080fd5b506002805433600160a060020a0319918216811790925560048054821683179055600380549091169091179055620186a0600155611e75806100536000396000f3006080604052600436106101535763ffffffff7c010000000000000000000000000000000000000000000000000000000060003504166308fb8a888114610158578063253581e51461017b5780632ac12622146101a45780632c9f480d146101bc5780634b2084e3146101e357806351b42b00146102115780635aec06c11461022657806372324d4d146102475780637489ec231461026857806382e94ac51461028057806384373341146102955780638da5cb5b146102af5780638f98f704146102e05780639245290d1461030457806397128d6e14610325578063a6f9dae114610425578063c23f001f14610446578063c415b95c1461046d578063d06f34b214610482578063d0e30db01461049a578063d5813323146104a2578063ef9f269d146104ba578063f7213db6146104cf578063f92649ed146104e7578063fb0f97a81461050b578063fd922a4214610535575b600080fd5b34801561016457600080fd5b50610179600160a060020a036004351661054a565b005b34801561018757600080fd5b50610190610590565b604080519115158252519081900360200190f35b3480156101b057600080fd5b50610190600435610599565b3480156101c857600080fd5b506101d16105ae565b60408051918252519081900360200190f35b3480156101ef57600080fd5b50610179600160a060020a0360043581169060243590604435166064356105b4565b34801561021d57600080fd5b5061017961080f565b34801561023257600080fd5b506101d1600160a060020a0360043516610837565b34801561025357600080fd5b506101d1600160a060020a0360043516610849565b34801561027457600080fd5b5061017960043561085b565b34801561028c57600080fd5b5061017961088d565b3480156102a157600080fd5b5061017960043515156108f0565b3480156102bb57600080fd5b506102c461091a565b60408051600160a060020a039092168252519081900360200190f35b3480156102ec57600080fd5b50610179600160a060020a0360043516602435610929565b34801561031057600080fd5b50610179600160a060020a0360043516610980565b34801561033157600080fd5b506040805160206004803580820135838102808601850190965280855261017995369593946024949385019291829185019084908082843750506040805187358901803560208181028481018201909552818452989b9a998901989297509082019550935083925085019084908082843750506040805187358901803560208181028481018201909552818452989b9a998901989297509082019550935083925085019084908082843750506040805187358901803560208181028481018201909552818452989b9a9989019892975090820195509350839250850190849080828437509497506109c69650505050505050565b34801561043157600080fd5b50610179600160a060020a036004351661177e565b34801561045257600080fd5b506101d1600160a060020a03600435811690602435166117c4565b34801561047957600080fd5b506102c46117e1565b34801561048e57600080fd5b506101796004356117f0565b61017961181c565b3480156104ae57600080fd5b506101906004356118ea565b3480156104c657600080fd5b506101906118ff565b3480156104db57600080fd5b506101d160043561190d565b3480156104f357600080fd5b50610179600160a060020a036004351660243561191f565b34801561051757600080fd5b50610179600160a060020a0360043581169060243516604435611ada565b34801561054157600080fd5b506102c4611c77565b600354600160a060020a0316331461056157600080fd5b6002805473ffffffffffffffffffffffffffffffffffffffff1916600160a060020a0392909216919091179055565b60005460ff1681565b600a6020526000908152604090205460ff1681565b60015481565b600254600160a060020a031633146105cb57600080fd5b600160a060020a038085166000908152600560209081526040808320938616835292905220548311156105fd57600080fd5b600160a060020a03808516600090815260056020908152604080832093861683529290522054610633908463ffffffff611c8616565b600160a060020a0380861660009081526005602090815260408083209387168352929052205566b1a2bc2ec50000811115610672575066b1a2bc2ec500005b61069a670de0b6b3a764000061068e838663ffffffff611c9d16565b9063ffffffff611cc616565b600160a060020a038086166000908152600560209081526040808320600454909416835292905220549091506106d6908263ffffffff611cdb16565b600160a060020a0380861660009081526005602090815260408083206004549094168352929052205561070f838263ffffffff611c8616565b9250600160a060020a038416151561075657604051600160a060020a0383169084156108fc029085906000818181858888f19350505050151561075157600080fd5b610809565b83600160a060020a031663a9059cbb83856040518363ffffffff167c01000000000000000000000000000000000000000000000000000000000281526004018083600160a060020a0316600160a060020a0316815260200182815260200192505050602060405180830381600087803b1580156107d257600080fd5b505af11580156107e6573d6000803e3d6000fd5b505050506040513d60208110156107fc57600080fd5b5051151561080957600080fd5b50505050565b600354600160a060020a0316331461082657600080fd5b6000805461ff001916610100179055565b60096020526000908152604090205481565b60086020526000908152604090205481565b600254600160a060020a0316331461087257600080fd5b6000908152600a60205260409020805460ff19166001179055565b33600090815260086020526040902054156108a757600080fd5b33600081815260086020908152604091829020439055815192835290517ff65646537c435bb790f1113af8940702459843459f94029c00b7877a99b7e4e49281900390910190a1565b600354600160a060020a0316331461090757600080fd5b6000805460ff1916911515919091179055565b600354600160a060020a031681565b600254600160a060020a0316331461094057600080fd5b600160a060020a038216600090815260096020526040902054811161096457600080fd5b600160a060020a03909116600090815260096020526040902055565b600354600160a060020a0316331461099757600080fd5b6004805473ffffffffffffffffffffffffffffffffffffffff1916600160a060020a0392909216919091179055565b600254600090819081908190600160a060020a031633146109e657600080fd5b8660038151811015156109f557fe5b90602001906020020151600960008a6000815181101515610a1257fe5b6020908102909101810151600160a060020a031682528101919091526040016000205410610a3f57600080fd5b30886000815181101515610a4f57fe5b90602001906020020151896002815181101515610a6857fe5b90602001906020020151896000815181101515610a8157fe5b906020019060200201518b6003815181101515610a9a57fe5b906020019060200201518b6001815181101515610ab357fe5b906020019060200201518c6003815181101515610acc57fe5b906020019060200201518d6007815181101515610ae557fe5b6020908102909101810151604080516c01000000000000000000000000600160a060020a039b8c16810282860152998b168a026034820152978a1689026048890152605c88019690965293909716909502607c850152609084015260b083019390935260d0808301939093528051808303909301835260f09091019081905281519192909182918401908083835b60208310610b925780518252601f199092019160209182019101610b73565b51815160209384036101000a600019018019909216911617905260408051929094018290039091206000818152600a909252929020549197505060ff16159150610bdd905057600080fd5b876000815181101515610bec57fe5b90602001906020020151600160a060020a0316610c5385886000815181101515610c1257fe5b90602001906020020151886000815181101515610c2b57fe5b90602001906020020151896001815181101515610c4457fe5b90602001906020020151611ce8565b600160a060020a031614610c6657600080fd5b3084896001815181101515610c7757fe5b90602001906020020151896002815181101515610c9057fe5b906020019060200201518a6004815181101515610ca957fe5b906020019060200201516040516020018086600160a060020a0316600160a060020a03166c01000000000000000000000000028152601401856000191660001916815260200184600160a060020a0316600160a060020a03166c01000000000000000000000000028152601401838152602001828152602001955050505050506040516020818303038152906040526040518082805190602001908083835b60208310610d675780518252601f199092019160209182019101610d48565b51815160209384036101000a6000190180199092169116179052604080519290940182900390912060008181526007909252929020549196505060ff16159150610db2905057600080fd5b876001815181101515610dc157fe5b90602001906020020151600160a060020a0316610e1984886001815181101515610de757fe5b90602001906020020151886002815181101515610e0057fe5b90602001906020020151896003815181101515610c4457fe5b600160a060020a031614610e2c57600080fd5b6000838152600760205260409020805460ff1916600117905586516611c37937e080009088906005908110610e5d57fe5b906020019060200201511115610e8f576611c37937e08000876005815181101515610e8457fe5b602090810290910101525b6611c37937e08000876006815181101515610ea657fe5b906020019060200201511115610ed8576611c37937e08000876006815181101515610ecd57fe5b602090810290910101525b866002815181101515610ee757fe5b90602001906020020151600560008a6002815181101515610f0457fe5b90602001906020020151600160a060020a0316600160a060020a0316815260200190815260200160002060008a6000815181101515610f3f57fe5b6020908102909101810151600160a060020a03168252810191909152604001600020541015610f6d57600080fd5b610fca876000815181101515610f7f57fe5b9060200190602002015161068e896002815181101515610f9b57fe5b906020019060200201518a6001815181101515610fb457fe5b602090810290910101519063ffffffff611c9d16565b600560008a6003815181101515610fdd57fe5b90602001906020020151600160a060020a0316600160a060020a0316815260200190815260200160002060008a600181518110151561101857fe5b6020908102909101810151600160a060020a0316825281019190915260400160002054101561104657600080fd5b86600081518110151561105557fe5b9060200190602002015161109888600281518110151561107157fe5b6020908102909101810151600088815260069092526040909120549063ffffffff611cdb16565b11156110a357600080fd5b6110da670de0b6b3a764000061068e8960028151811015156110c157fe5b906020019060200201518a6006815181101515610fb457fe5b91506111758760028151811015156110ee57fe5b90602001906020020151600560008b600281518110151561110b57fe5b90602001906020020151600160a060020a0316600160a060020a0316815260200190815260200160002060008b600081518110151561114657fe5b6020908102909101810151600160a060020a03168252810191909152604001600020549063ffffffff611c8616565b600560008a600281518110151561118857fe5b90602001906020020151600160a060020a0316600160a060020a0316815260200190815260200160002060008a60008151811015156111c357fe5b90602001906020020151600160a060020a0316600160a060020a031681526020019081526020016000208190555061129a61121d8389600281518110151561120757fe5b602090810290910101519063ffffffff611c8616565b600560008b600281518110151561123057fe5b90602001906020020151600160a060020a0316600160a060020a0316815260200190815260200160002060008b600181518110151561126b57fe5b6020908102909101810151600160a060020a03168252810191909152604001600020549063ffffffff611cdb16565b600560008a60028151811015156112ad57fe5b90602001906020020151600160a060020a0316600160a060020a0316815260200190815260200160002060008a60018151811015156112e857fe5b90602001906020020151600160a060020a0316600160a060020a031681526020019081526020016000208190555061137082600560008b600281518110151561132d57fe5b6020908102909101810151600160a060020a039081168352828201939093526040918201600090812060045490941681529290529020549063ffffffff611cdb16565b600560008a600281518110151561138357fe5b6020908102909101810151600160a060020a03908116835282820193909352604091820160009081206004549094168152929052812091909155875161142491670de0b6b3a76400009161068e91611415918c919081106113e057fe5b9060200190602002015161068e8c60028151811015156113fc57fe5b906020019060200201518d6001815181101515610fb457fe5b8a6005815181101515610fb457fe5b60005490915060ff161515611588576114a66114588261144c8a60008151811015156113e057fe5b9063ffffffff611c8616565b600560008b600381518110151561146b57fe5b90602001906020020151600160a060020a0316600160a060020a0316815260200190815260200160002060008b600081518110151561126b57fe5b600560008a60038151811015156114b957fe5b90602001906020020151600160a060020a0316600160a060020a0316815260200190815260200160002060008a60008151811015156114f457fe5b90602001906020020151600160a060020a0316600160a060020a031681526020019081526020016000208190555061153981600560008b600381518110151561132d57fe5b600560008a600381518110151561154c57fe5b6020908102909101810151600160a060020a0390811683528282019390935260409182016000908120600454909416815292905290205561161f565b6115ad611458826115a18a60008151811015156113e057fe5b9063ffffffff611cdb16565b600560008a60038151811015156115c057fe5b90602001906020020151600160a060020a0316600160a060020a0316815260200190815260200160002060008a60008151811015156115fb57fe5b6020908102909101810151600160a060020a03168252810191909152604001600020555b6116b761166988600081518110151561163457fe5b9060200190602002015161068e8a600281518110151561165057fe5b906020019060200201518b6001815181101515610fb457fe5b600560008b600381518110151561167c57fe5b90602001906020020151600160a060020a0316600160a060020a0316815260200190815260200160002060008b600181518110151561114657fe5b600560008a60038151811015156116ca57fe5b90602001906020020151600160a060020a0316600160a060020a0316815260200190815260200160002060008a600181518110151561170557fe5b6020908102909101810151600160a060020a03168252810191909152604001600020558651611762908890600290811061173b57fe5b6020908102909101810151600087815260069092526040909120549063ffffffff611cdb16565b6000948552600660205260409094209390935550505050505050565b600354600160a060020a0316331461179557600080fd5b6003805473ffffffffffffffffffffffffffffffffffffffff1916600160a060020a0392909216919091179055565b600560209081526000928352604080842090915290825290205481565b600454600160a060020a031681565b600354600160a060020a0316331461180757600080fd5b620186a081111561181757600080fd5b600155565b600054610100900460ff161561183157600080fd5b3360009081527f05b8ccbb9d4d8fb16ea74ce3c29a41f1b461fbdaff4714a0d9a8eb05499746bc6020526040902054611870903463ffffffff611cdb16565b3360008181527f05b8ccbb9d4d8fb16ea74ce3c29a41f1b461fbdaff4714a0d9a8eb05499746bc6020908152604080832085905580519283529082019290925234818301526060810192909252517fdcbc1c05240f31ff3ad067ef1ee35ce4997762752e3a095284754544f4c709d79181900360800190a1565b60076020526000908152604090205460ff1681565b600054610100900460ff1681565b60066020526000908152604090205481565b600054610100900460ff168061196f5750336000908152600860205260409020541580159061196f57506001543360009081526008602052604090205461196d90439063ffffffff611c8616565b115b151561197a57600080fd5b600160a060020a03821660009081526005602090815260408083203384529091529020548111156119aa57600080fd5b600160a060020a03821660009081526005602090815260408083203384529091529020546119de908263ffffffff611c8616565b600160a060020a03831660008181526005602090815260408083203384529091529020919091551515611a3757604051339082156108fc029083906000818181858888f193505050501515611a3257600080fd5b611ad6565b604080517fa9059cbb000000000000000000000000000000000000000000000000000000008152336004820152602481018390529051600160a060020a0384169163a9059cbb9160448083019260209291908290030181600087803b158015611a9f57600080fd5b505af1158015611ab3573d6000803e3d6000fd5b505050506040513d6020811015611ac957600080fd5b50511515611ad657600080fd5b5050565b600254600160a060020a03163314611af157600080fd5b600054610100900460ff1615611b0657600080fd5b600160a060020a03808416600090815260056020908152604080832093861683529290522054611b3c908263ffffffff611cdb16565b600160a060020a0380851660008181526005602090815260408083209488168084529482528083209590955584517f23b872dd000000000000000000000000000000000000000000000000000000008152600481019490945230602485015260448401869052935191936323b872dd936064808201949293918390030190829087803b158015611bcb57600080fd5b505af1158015611bdf573d6000803e3d6000fd5b505050506040513d6020811015611bf557600080fd5b50511515611c0257600080fd5b600160a060020a0380841660008181526005602090815260408083209487168084529482529182902054825193845290830193909352818101849052606082019290925290517fdcbc1c05240f31ff3ad067ef1ee35ce4997762752e3a095284754544f4c709d79181900360800190a1505050565b600254600160a060020a031681565b600082821115611c9257fe5b508082035b92915050565b6000821515611cae57506000611c97565b50818102818382811515611cbe57fe5b0414611c9757fe5b60008183811515611cd357fe5b049392505050565b81810182811015611c9757fe5b604080518082018252601c8082527f19457468657265756d205369676e6564204d6573736167653a0a33320000000060208084019182529351600094859385938b939092019182918083835b60208310611d535780518252601f199092019160209182019101611d34565b51815160209384036101000a600019018019909216911617905292019384525060408051808503815293820190819052835193945092839250908401908083835b60208310611db35780518252601f199092019160209182019101611d94565b51815160209384036101000a600019018019909216911617905260408051929094018290038220600080845283830180875282905260ff8e1684870152606084018d9052608084018c905294519097506001965060a080840196509194601f19820194509281900390910191865af1158015611e33573d6000803e3d6000fd5b5050604051601f190151989750505050505050505600a165627a7a72305820170d5608a349144d48d97262497209e87674babe7d21c8d1aa4d4a041eb0399f0029",
  "source": "pragma solidity ^0.4.22;\n\nimport \"openzeppelin-solidity/contracts/math/SafeMath.sol\";\nimport \"openzeppelin-solidity/contracts/token/ERC20/ERC20.sol\";\n\ncontract Exchange {\n  using SafeMath for uint;\n\n  uint constant MAX_ACCOUNT_EJECTION_TIMELOCK = 100000;\n  bool public negativeFees;\n  bool public inactive;\n  uint public accountEjectionTimelock;\n  address public server;\n  address public owner;\n  address public feeCollector;\n  mapping (address => mapping (address => uint)) public balances;\n  mapping (bytes32 => uint) public orderFills;\n  mapping (bytes32 => bool) public traded;\n  mapping (address => uint) public accountEjectedAt;\n  mapping (address => uint) public cancelledOrders;\n  mapping (bytes32 => bool) public cancelled;\n\n  event Deposit(address token, address account, uint amount, uint balance);\n  event Ejection(address account);\n\n  constructor() public {\n    server = msg.sender;\n    feeCollector = msg.sender;\n    owner = msg.sender;\n    accountEjectionTimelock = MAX_ACCOUNT_EJECTION_TIMELOCK;\n  }\n\n  modifier onlyActive {\n    require(inactive == false);\n    _;\n  }\n\n  modifier onlyInactiveOrAccountEjected {\n    require(inactive || (\n      accountEjectedAt[msg.sender] != 0 && \n      block.number.sub(accountEjectedAt[msg.sender]) > accountEjectionTimelock\n    ));\n    _;\n  }\n\n  modifier onlyServer {\n \t  require(msg.sender == server);\n    _;\n  }\n\n  modifier onlyOwner {\n    require(msg.sender == owner);\n    _;\n  }\n\n  function setAccountEjectionTimelock(uint value) public onlyOwner {\n    require(value <= MAX_ACCOUNT_EJECTION_TIMELOCK);\n    accountEjectionTimelock = value;\n  }\n\n  function setNegativeFees(bool _status) public onlyOwner { negativeFees = _status; }\n\n  function deactivate() public onlyOwner { inactive = true; }\n\n  function changeFeeCollector(address _feeCollector) public onlyOwner { feeCollector = _feeCollector; }\n\n  function changeServer(address _server) public onlyOwner { server = _server; }\n\n  function changeOwner(address _owner) public onlyOwner { owner = _owner; }\n\n  function deposit() public payable onlyActive {\n    balances[0][msg.sender] = balances[0][msg.sender].add(msg.value);\n    emit Deposit(address(0), msg.sender, msg.value, balances[0][msg.sender]);\n  }\n\n  function depositToken(address _token, address _account, uint _amount) public onlyServer onlyActive {\n    balances[_token][_account] = balances[_token][_account].add(_amount);\n    require(ERC20(_token).transferFrom(_account, this, _amount));\n    emit Deposit(_token, _account, _amount, balances[_token][_account]);\n  }\n\n  function withdraw(address _token, uint _amount, address _account, uint _fee) public onlyServer {\n    require(balances[_token][_account] >= _amount);\n    balances[_token][_account] = balances[_token][_account].sub(_amount);\n    if (_fee > 50 finney) _fee = 50 finney;\n    _fee = (_fee.mul(_amount)).div(1 ether);\n    balances[_token][feeCollector] = balances[_token][feeCollector].add(_fee);\n    _amount = _amount.sub(_fee);\n    if (_token == 0) {\n      require(_account.send(_amount));\n    } else {\n      require(ERC20(_token).transfer(_account, _amount));\n    }\n  }\n\n  function eject() public {\n    require(accountEjectedAt[msg.sender] == 0);\n    accountEjectedAt[msg.sender] = block.number;\n    emit Ejection(msg.sender);\n  }\n\n  function directWithdraw(address _token, uint _amount) public onlyInactiveOrAccountEjected {\n    require(balances[_token][msg.sender] >= _amount);\n    balances[_token][msg.sender] = balances[_token][msg.sender].sub(_amount);\n    if (_token == 0) {\n      require(msg.sender.send(_amount));\n    } else {\n      require(ERC20(_token).transfer(msg.sender, _amount));\n    }\n  }\n\n  function trade(address[] _addresses, uint[] _uints, uint8[] v, bytes32[] rs) public onlyServer {\n    /*\n      _addresses[0] == maker\n      _addresses[1] == taker\n      _addresses[2] == giveToken\n      _addresses[3] == takeToken\n      _uints[0] == giveAmount\n      _uints[1] == takeAmount\n      _uints[2] == fillAmount\n      _uints[3] == makerNonce\n      _uints[4] == takerNonce\n      _uints[5] == makerFee\n      _uints[6] == takerFee\n      _uints[7] == expiry\n      v[0] == makerV\n      v[1] == takerV\n      rs[0]..[1] == makerR, makerS\n      rs[2]..[3] == takerR, takerS\n    */\n    require(cancelledOrders[_addresses[0]] < _uints[3]);\n    bytes32 orderHash = keccak256(abi.encodePacked(this, _addresses[0], _addresses[2], _uints[0], _addresses[3], _uints[1], _uints[3], _uints[7]));\n    require(!cancelled[orderHash]);\n    require(recover(orderHash, v[0], rs[0], rs[1]) == _addresses[0]);\n    bytes32 tradeHash = keccak256(abi.encodePacked(this, orderHash, _addresses[1], _uints[2], _uints[4]));\n    require(!traded[tradeHash]);\n    require(recover(tradeHash, v[1], rs[2], rs[3]) == _addresses[1]);\n    traded[tradeHash] = true;\n    if (_uints[5] > 5 finney) _uints[5] = 5 finney;\n    if (_uints[6] > 5 finney) _uints[6] = 5 finney;\n    require(balances[_addresses[2]][_addresses[0]] >= _uints[2]);\n    require(balances[_addresses[3]][_addresses[1]] >= _uints[1].mul(_uints[2]).div(_uints[0]));\n    require(orderFills[orderHash].add(_uints[2]) <= _uints[0]);\n    // takerFee = takerFee * fillAmount / 1 ether\n    uint takerFee = (_uints[6].mul(_uints[2])).div(1 ether);\n    // makerGive = makerGive - fillAmount\n    balances[_addresses[2]][_addresses[0]] = balances[_addresses[2]][_addresses[0]].sub(_uints[2]);\n    // takerGive = takerGive + fillAmount - takerFee\n    balances[_addresses[2]][_addresses[1]] = balances[_addresses[2]][_addresses[1]].add((_uints[2]).sub(takerFee));\n    // feeGive = feeGive + takerFee\n    balances[_addresses[2]][feeCollector] = balances[_addresses[2]][feeCollector].add(takerFee);\n    // makerFee = makerFee * (takeAmount * fillAmount / giveAmount) / 1 ether\n    uint makerFee = (_uints[5].mul(_uints[1].mul(_uints[2]).div(_uints[0]))).div(1 ether);\n    if (!negativeFees) {\n      // makerTake = makerTake + (takeAmount * fillAmount / giveAmount) - makerFee\n      balances[_addresses[3]][_addresses[0]] = balances[_addresses[3]][_addresses[0]].add((_uints[1].mul(_uints[2]).div(_uints[0])).sub(makerFee));\n      // feeTake = feeTake + makerFee\n      balances[_addresses[3]][feeCollector] = balances[_addresses[3]][feeCollector].add(makerFee);\n    } else {\n      // makerTake = makerTake + (takeAmount * fillAmount / giveAmount) + makerFee\n      balances[_addresses[3]][_addresses[0]] = balances[_addresses[3]][_addresses[0]].add((_uints[1].mul(_uints[2]).div(_uints[0])).add(makerFee));\n    }\n    // takerTake = takerTake - (takeAmount * fillAmount / giveAmount)\n    balances[_addresses[3]][_addresses[1]] = balances[_addresses[3]][_addresses[1]].sub(_uints[1].mul(_uints[2]).div(_uints[0]));\n    orderFills[orderHash] = orderFills[orderHash].add(_uints[2]);\n  }\n \n  function bulkCancelOrders(address _account, uint _nonce) public onlyServer {\n    require(_nonce > cancelledOrders[_account]);\n    cancelledOrders[_account] = _nonce;\n  }\n\n  function cancelOrder(bytes32 _hash) public onlyServer {\n    cancelled[_hash] = true;\n  }\n\n  function recover(bytes32 _hash, uint8 v, bytes32 r, bytes32 s) private pure returns (address) {\n    bytes memory prefix = \"\\x19Ethereum Signed Message:\\n32\";\n    bytes32 hash = keccak256(abi.encodePacked(prefix, _hash));\n    return ecrecover(hash, v, r, s);\n  }\n}\n\n",
  "sourcePath": "/Users/hieu/dev/dreamx-contracts/contracts/Exchange.sol",
  "compiler": {
    "name": "solc",
    "version": "0.4.24+commit.e67f0147.Emscripten.clang"
  },
  "schemaVersion": "2.0.1",
  "updatedAt": "2020-01-18T10:55:30.691Z"
}